S019000054656D7065726174757265204D657465722E7372656360
S11300000C942A000C9447000C9447000C9447006D
S11300100C9447000C9447000C9447000C94470040
S11300200C9447000C9447000C9447000C94470030
S11300300C9447000C9447000C9447000C94470020
S11300400C9447000C9447000C9447000C94470010
S11300500C94470011241FBECFE5D8E0DEBFCDBF0E
S113006010E0A0E6B0E0E2EEFBE002C005900D92E5
S1130070AE36B107D9F710E0AEE6B0E001C01D928C
S1130080A137B107E1F70E9461040C94EF050C94C9
S11300900000339A3E9A3F9A379A3898319A329AA6
S11300A00895369A349BFECF349A84B190E045B1DA
S11300B0342F20E0822B932B0895843409F471C0EB
S11300C0853448F4823499F1833408F04DC0813486
S11300D009F083C00FC0823651F1833620F4813693
S11300E009F07BC007C0833609F43EC0843609F0AA
S11300F074C057C0413069F42AB381E090E0AC0188
S113010002C0440F551F6A95E2F7BA01622B6ABB1D
S113011008952AB381E090E0AC0102C0440F551F5A
S11301206A95E2F7BA01609562236ABB089541308B
S113013069F427B381E090E0AC0102C0440F551F7D
S11301406A95E2F7BA01622B67BB089527B381E091
S113015090E0AC0102C0440F551F6A95E2F7BA0162
S11301606095622367BB0895413069F424B381E04C
S113017090E0AC0102C0440F551F6A95E2F7BA0142
S1130180622B64BB089524B381E090E0AC0102C00B
S1130190440F551F6A95E2F7BA016095622364BB68
S11301A00895413069F421B381E090E0AC0102C0CC
S11301B0440F551F6A95E2F7BA01622B61BB08959B
S11301C021B381E090E0AC0102C0440F551F6A9551
S11301D0E2F7BA016095622361BB0895843409F49F
S11301E071C0853448F4823499F1833408F04DC0E9
S11301F0813409F083C00FC0823651F1833620F474
S1130200813609F07BC007C0833609F43EC08436CA
S113021009F074C057C0413069F42BB381E090E019
S1130220AC0102C0440F551F6A95E2F7BA01622B74
S11302306BBB08952BB381E090E0AC0102C0440F86
S1130240551F6A95E2F7BA01609562236BBB089566
S1130250413069F428B381E090E0AC0102C0440F5E
S1130260551F6A95E2F7BA01622B68BB089528B35B
S113027081E090E0AC0102C0440F551F6A95E2F79B
S1130280BA016095622368BB0895413069F425B3CF
S113029081E090E0AC0102C0440F551F6A95E2F77B
S11302A0BA01622B65BB089525B381E090E0AC01EF
S11302B002C0440F551F6A95E2F7BA0160956223A4
S11302C065BB0895413069F422B381E090E0AC014C
S11302D002C0440F551F6A95E2F7BA01622B62BB54
S11302E0089522B381E090E0AC0102C0440F551F91
S11302F06A95E2F7BA016095622362BB089584347B
S113030009F43DC0853440F48234F9F0833450F567
S1130310813409F040C00CC08236B9F0833618F439
S11303208136C9F505C08336E9F08436A1F527C0C6
S11303302BB381E090E0AC0102C0440F551F6A95D5
S1130340E2F7BA0162276BBB089528B381E090E01D
S1130350AC0102C0440F551F6A95E2F7BA01622747
S113036068BB089525B381E090E0AC0102C0440F5E
S1130370551F6A95E2F7BA01622765BB089522B357
S113038081E090E0AC0102C0440F551F6A95E2F78A
S1130390BA01622762BB0895843409F451C08534DC
S11303A040F4823439F18334C0F5813409F05AC001
S11303B00EC08236F9F0833620F4813609F052C03B
S11303C006C0833651F1843609F04CC039C029B3D4
S11303D081E090E0062E02C0880F991F0A94E2F78C
S11303E030E08223932302C0969587956A95E2F7BD
S11303F0982F38C026B381E090E0062E02C0880F03
S1130400991F0A94E2F730E08223932302C0969561
S113041087956A95E2F7982F25C023B381E090E091
S1130420062E02C0880F991F0A94E2F730E0822357
S1130430932302C0969587956A95E2F7982F12C088
S113044020B381E090E0062E02C0880F991F0A9421
S1130450E2F730E08223932302C0969587956A954C
S1130460E2F7982F892F08958434D9F0853438F42D
S1130470823499F0833498F48134A1F40CC0823628
S113048061F0833618F4813669F405C0833639F097
S1130490843641F406C06ABB089567BB089564BB03
S11304A0089561BB08958434D9F0853438F48234D6
S11304B099F0833498F48134A1F40CC0823661F04D
S11304C0833618F4813669F405C0833639F08436EE
S11304D041F406C06BBB089568BB089565BB0895DD
S11304E062BB0895843409F1853438F48234A9F068
S11304F08334B8F48134E1F40CC0823671F083366D
S113050018F48136A9F405C0833659F0843681F491
S11305100CC08BB380958BBB089588B3809588BB42
S1130520089585B3809585BB089582B3809582BB79
S113053008958434D9F0853438F4823499F08334BE
S113054098F48134A1F40CC0823661F0833618F437
S1130550813669F405C0833639F0843641F406C027
S113056089B3089586B3089583B3089580B3089535
S1130570843409F471C0853448F4823499F18334A5
S113058008F04DC0813409F083C00FC0823651F1A8
S1130590833620F4813609F07BC007C0833609F422
S11305A03EC0843609F074C057C0413069F42BB39F
S11305B081E090E0AC0102C0440F551F6A95E2F758
S11305C0BA01622B6BBB08952BB381E090E0AC01C0
S11305D002C0440F551F6A95E2F7BA016095622381
S11305E06BBB0895413069F428B381E090E0AC011D
S11305F002C0440F551F6A95E2F7BA01622B68BB2B
S1130600089528B381E090E0AC0102C0440F551F67
S11306106A95E2F7BA016095622368BB0895413098
S113062069F425B381E090E0AC0102C0440F551F8A
S11306306A95E2F7BA01622B65BB089525B381E0A0
S113064090E0AC0102C0440F551F6A95E2F7BA016D
S11306506095622365BB0895413069F422B381E05B
S113066090E0AC0102C0440F551F6A95E2F7BA014D
S1130670622B62BB089522B381E090E0AC0102C01A
S1130680440F551F6A95E2F7BA016095622362BB75
S113069008956F70843451F1853438F48234C1F094
S11306A08334E8F4813441F50CC0823689F0833612
S11306B018F4813609F505C0833689F08436E1F4EF
S11306C015C08BB3807F8BBB8BB3682B6BBB08953A
S11306D088B3807F88BB88B3682B68BB089585B3D3
S11306E0807F85BB85B3682B65BB089582B3807F0B
S11306F082BB82B3682B62BB08956295607F8434A9
S113070051F1853438F48234C1F08334E8F481340F
S113071041F50CC0823689F0833618F4813609F528
S113072005C0833689F08436E1F415C08BB38F702D
S11307308BBB8BB3682B6BBB089588B38F7088BB5E
S113074088B3682B68BB089585B38F7085BB85B368
S1130750682B65BB089582B38F7082BB82B3682B0C
S113076062BB089582E460E041E00E94EE008FE9FC
S11307709FE00197F1F700C0000082E460E040E0F0
S11307800E94EE008FE99FE00197F1F700C000009E
S11307900895682F84E40E94530282E461E041E0FA
S11307A00E94EE000E94B2030895682F84E40E9420
S11307B0530282E461E040E00E94EE000E94B20332
S11307C008958FEF91EEA4E081509040A040E1F7AE
S11307D000C0000084E46FEF0E94340282E460E011
S11307E041E00E945D0082E461E041E00E945D001E
S11307F082E462E041E00E945D0082E462E040E065
S11308000E94EE0088E30E94D503AFECB7E0119795
S1130810F1F700C000008CE00E94D5038FEC97E054
S11308200197F1F700C0000081E00E94D503AFE119
S1130830BEE41197F1F700C0000086E00E94D503E2
S11308408FEC97E00197F1F700C00000089581E074
S11308500E94D5038FE19EE40197F1F700C00000E8
S11308600895CF93DF93EC018881882331F021969A
S11308700E94C90389918823D9F7DF91CF91089504
S1130880282F2150223070F4613170F4662371F006
S1130890813019F4962F91580AC0823041F4962F72
S11308A0915405C090E803C090E801C090E8892FF6
S11308B00E94D5038FEC97E00197F1F700C0000088
S11308C008950E94E1030E94490080E690E00E949E
S11308D03104CAE0D0E00E945100BC0180E090E005
S11308E00E94EA0420E030E040E85EE30E94500504
S11308F00E94BE04AB01BC0150936F0040936E0094
S11309004A305105C0F481E06DE00E9440048091BA
S11309106E0090916F00BE010E94DB05805D0E9415
S1130920C9038FED0E94C90383E40E94C90380E2D6
S11309300E94C903D0CF4436510568F681E06DE0CA
S11309400E94400480916E0090916F00BE010E944D
S1130950DB05862F805D0E94C90380916E00909113
S11309606F00BE010E94DB05805D0E94C9038FED0C
S11309700E94C90383E40E94C903ADCF70D088F0FC
S11309809F5790F0B92F9927B751A0F0D1F0660F77
S1130990771F881F991F1AF0BA95C9F712C0B13092
S11309A081F077D0B1E0089574C0672F782F88273D
S11309B0B85F39F0B93FCCF3869577956795B395D1
S11309C0D9F73EF490958095709561957F4F8F4F40
S11309D09F4F0895E89409C097FB3EF49095809545
S11309E0709561957F4F8F4F9F4F9923A9F0F92FF1
S11309F096E9BB279395F695879577956795B7956F
S1130A00F111F8CFFAF4BB0F11F460FF1BC06F5F54
S1130A107F4F8F4F9F4F16C0882311F096E911C066
S1130A20772321F09EE8872F762F05C0662371F087
S1130A3096E8862F70E060E02AF09A95660F771F9B
S1130A40881FDAF7880F9695879597F9089557FDCB
S1130A509058440F551F59F05F3F71F04795880F28
S1130A6097FB991F61F09F3F79F0879508951216BF
S1130A7013061406551FF2CF4695F1DF08C016166B
S1130A8017061806991FF1CF86957105610508941C
S1130A900895E894BB2766277727CB0197F9089533
S1130AA00BD078C069D028F06ED018F0952309F0E7
S1130AB05AC05FC01124EECFCADFA0F3959FD1F3D3
S1130AC0950F50E0551F629FF001729FBB27F00DF8
S1130AD0B11D639FAA27F00DB11DAA1F649F66274D
S1130AE0B00DA11D661F829F2227B00DA11D621F9C
S1130AF0739FB00DA11D621F839FA00D611D221F56
S1130B00749F3327A00D611D231F849F600D211D39
S1130B10822F762F6A2F11249F5750408AF0E1F0DC
S1130B2088234AF0EE0FFF1FBB1F661F771F881F25
S1130B3091505040A9F79E3F510570F014C0AACFC0
S1130B405F3FECF3983EDCF3869577956795B79510
S1130B50F795E7959F5FC1F7FE2B880F911D96953A
S1130B60879597F9089597F99F6780E870E060E0AA
S1130B7008959FEF80EC089500240A941616170632
S1130B8018060906089500240A941216130614067A
S1130B9005060895092E0394000C11F4882352F0DD
S1130BA0BB0F40F4BF2B11F460FF04C06F5F7F4F95
S1130BB08F4F9F4F0895AA1BBB1B51E107C0AA1F6B
S1130BC0BB1FA617B70710F0A61BB70B881F991FEA
S1130BD05A95A9F780959095BC01CD010895F89494
S1050BE0FFCF41
S1110BE274656D70657261747572653D000016
S9030000FC
